:020000040800F2
:100000003804002049010008210700082D040008D9
:100010001D0700080D030008550B00080000000034
:10002000000000000000000000000000A10800081F
:100030001103000800000000A9070008B509000826
:100040006301000863010008630100086301000800
:1000500063010008630100086301000863010008F0
:1000600063010008630100086301000863010008E0
:1000700063010008630100086301000863010008D0
:1000800063010008630100086301000863010008C0
:1000900063010008630100086301000863010008B0
:1000A00063010008630100086301000863010008A0
:1000B0006301000863010008630100086301000890
:1000C0006301000863010008630100086301000880
:1000D0006301000863010008630100086301000870
:1000E0006301000863010008630100086301000860
:1000F0006301000863010008630100086301000850
:10010000630100086301000863010008630100083F
:10011000630100086301000863010008630100082F
:10012000630100086301000863010008630100081F
:10013000DFF810D000F04CF800480047BD0E000872
:10014000AFF3008038040020064880470648004787
:10015000FEE7FEE7FEE7FEE7FEE7FEE7FEE7FEE777
:10016000FEE7FEE7B9090008310100082DE9F05F5C
:100170000546002092469B46884606468146402416
:100180001BE0284641464746224600F042F85346C7
:100190005A46C01A914110D311461846224600F023
:1001A00029F82D1A67EB01084F462246012000214D
:1001B00000F020F817EB00094E41201EA4F10104C5
:1001C000DFDC484631462A464346BDE8F09F000042
:1001D000064C074D06E0E06840F0010394E8070094
:1001E00098471034AC42F6D3FFF7A6FFBC0F0008C7
:1001F000DC0F0008202A04DB203A00FA02F100207C
:1002000070479140C2F1200320FA03F31943904054
:100210007047202A04DB203A21FA02F000217047BF
:1002200021FA02F3D040C2F120029140084319465E
:10023000704710B552212F2000F051F8642000F0D3
:10024000E3FD00212D2000F04AF801212C2000F0D0
:1002500046F810BD70B504460D461646082000F05D
:100260000AF820600B2000F006F828600E2000F04D
:1002700002F8306070BDF8B50646002500F0B4F90C
:100280003A2000F07DF900F0FBF9304600F078F9F3
:1002900000F0F6F900F0A8F93B2000F071F900F049
:1002A000EFF900240AE0022C01DA012100E000212C
:1002B000084600F02DF90DF80400641C032CF2DB55
:1002C00000F0B8F99DF8000005049DF8010045EA2A
:1002D00000259DF8020005432D112846F8BD70B594
:1002E00005460C4600F080F93A2000F049F900F08C
:1002F000C7F9284600F044F900F0C2F9204600F0A2
:100300003FF900F0BDF900F095F970BD00BFFEE7C0
:1003100070472DE9F0410246002500260020002309
:100320000024002791F803C00CF00F0591F803C0DA
:100330000CF0100CBCF1000F03D091F802C04CEA95
:10034000050591F800C0BCF1000F31D01468002001
:100350002BE04FF0010C0CFA00F3B1F800C00CEAEE
:1003600003069E4220D183004FF00F0C0CFA03F7D6
:10037000BC4305FA03FC4CEA040491F803C0BCF149
:10038000280F06D14FF0010C0CFA00FCC2F814C083
:100390000AE091F803C0BCF1480F05D14FF0010C01
:1003A0000CFA00FCC2F810C0401C0828D1D314601D
:1003B000B1F800C0BCF1FF0F34DD546800202EE01E
:1003C00000F1080C4FF0010808FA0CF3B1F800C076
:1003D0000CEA03069E4221D183004FF00F0C0CFA69
:1003E00003F7BC4305FA03FC4CEA040491F803C08C
:1003F000BCF1280F05D100F1080C08FA0CF8C2F87E
:10040000148091F803C0BCF1480F07D100F1080C2B
:100410004FF0010808FA0CF8C2F81080401C0828B8
:10042000CED35460BDE8F0810161704700BFFEE7A4
:1004300010B500200F4908600F48006820F0704098
:100440000D4908600846006840F0405008600020F0
:100450000A49C1F89C01022000F0FCFC012005497A
:100460000860022000F0F6FC00200449C1F8980161
:1004700010BD000098812142000C01400080214203
:1004800008B50121082000F091F9C020ADF8000066
:1004900014208DF8030003208DF8020069460548FA
:1004A000FFF737FF0120044908600449C1F89C01A7
:1004B00008BD0000000C01409881214200802142CB
:1004C00010B500200F4908600F48006820F0704008
:1004D0000D4908600846006840F04050086001205F
:1004E0000A49C1F89C01022000F0B4FC0120054932
:1004F0000860022000F0AEFC00200449C1F8980119
:1005000010BD000098812142000C01400080214272
:1005100070B5054600241748006820F07040154962
:1005200008600846006840F000400860002616E0B9
:10053000002011490860022000F08CFC01200F49C6
:10054000C1F898016006040E0B487C38006808B1B9
:10055000601CC4B2012000F07DFC701CC6B2082EE5
:10056000E6DB15B9FFF7ACFF01E0FFF761FF2046BE
:1005700070BD0000000C01409881214200802142A2
:1005800070B504461548006820F0704013490860B3
:100590000846006840F0405008600020104908609C
:1005A000002517E0E0090E49091D08606006040EE9
:1005B000022000F04FFC01200A49C1F898010220F6
:1005C00000F048FC002006490860022000F042FCD0
:1005D000681CC5B2082DE5DB70BD0000000C0140B1
:1005E000988121420080214210B50F48006820F018
:1005F00070400D4908600846006840F040500860AF
:1006000001200A4908600A49C1F89801042000F055
:1006100021FC002005490860042000F01BFC00209C
:100620000349C1F8980110BD000C01409C81214292
:100630000080214210B50F48006820F070400D493D
:1006400008600846006840F04050086000200A49F1
:1006500008600A49C1F89C01042000F0FBFB01205E
:10066000054908600549C1F89C01042000F0F2FB2F
:1006700010BD0000000C0140988121420080214201
:1006800010B500241448006820F07040124908603A
:100690000846006840F00040086001200F490860EB
:1006A00000F0D8FB01200E49C1F8980100F0D2FB00
:1006B00007E0601CC4B2FA2C03DDFFF7BBFF01208A
:1006C00010BD0648803800680028F2D10349091F90
:1006D000086000BFF4E70000000C01409C8121424B
:1006E0000080214208B50121102000F05FF84FF48E
:1006F0000050ADF8000010208DF8030003208DF8A5
:10070000020069460448FFF704FE4FF40051024816
:10071000FFF78AFE08BD00000010014000BFFEE7A1
:100720007047000070B5002100230F22C47804B385
:10073000154C246804F4E064C4F5E064210AC1F1B6
:100740000403CA40447804FA03F184781440214336
:1007500009010E4C0678A155047804F01F05012408
:10076000AC4005786D11AD0005F1E025C5F80041FC
:1007700009E0047804F01F050124AC40044D06781C
:10078000761145F8264070BD0CED00E000E400E075
:1007900080E100E002490143024A11607047000015
:1007A0000000FA050CED00E07047000029B1064A90
:1007B00092690243044B9A6104E0034A92698243BE
:1007C000014B9A61704700000010024030B50021D3
:1007D0000022002400232D4D6D6805F00C0121B18D
:1007E000042905D0082923D105E0294D056022E020
:1007F000274D05601FE0254D6D6805F47012234DEF
:100800006D6805F48034022505EB92421CB9214D38
:10081000554305600BE01D4D6D6805F400351DB1B5
:100820001C4D5543056002E0194D5543056002E03B
:10083000174D056000BF00BF144D6D6805F0F00155
:100840000909154D6B5C0568DD4045600F4D6D680D
:1008500005F4E061090A104D6B5C4568DD40856078
:100860000A4D6D6805F46051C90A0B4D6B5C456813
:10087000DD40C560054D6D6805F44041890B074DAD
:100880006B5CC568B5FBF3F5056130BD0010024037
:1008900000127A0000093D002000002030000020F6
:1008A000704710B500F002F810BD00000CB5002034
:1008B000019000903348006840F48030314908606E
:1008C00000BF3048006800F4003000900198401CE0
:1008D0000190009818B90198B0F5A06FF1D129489E
:1008E000006800F4003010B10120009001E0002009
:1008F00000900098012843D12348006840F0100080
:10090000214908600846006820F003000860084696
:10091000006840F0020008601A48406819494860C1
:100920000846406848600846406840F48060486077
:100930000846406820F47C1048600846406840F44F
:10094000E81048600846006840F08070086000BF0A
:100950000C48006800F000700028F9D00948406891
:1009600020F00300074948600846406840F0020054
:10097000486000BF0348406800F00C000828F9D127
:100980000CBD00000010024000200240042808D1E5
:100990004FF0E021096941F004014FF0E0221161BC
:1009A00007E04FF0E021096921F004014FF0E02257
:1009B000116170477047000010B51348006840F09F
:1009C00001001149086008464068104908400E4976
:1009D0004860084600680E4908400B490860084610
:1009E000006820F4802008600846406820F4FE007B
:1009F00048604FF41F008860FFF753FF4FF000601E
:100A00000449086010BD0000001002400000FFF81B
:100A1000FFFFF6FE08ED00E021B1828942F40052AA
:100A2000828104E082894DF6FF731A40828170470B
:100A3000F0B50346002400260025002040F66A1782
:100A4000B94200D100BF1846C1F3421401F01F069D
:100A5000012707FA06F5012C01D10C3004E0022C25
:100A600001D1103000E014301AB107682F4307603D
:100A700002E00768AF430760F0BD00002DE9F047D2
:100A800086B005460E460024A24600BFA1460027B8
:100A9000B08900B100BF2F462C8A4CF6FF7004408D
:100AA000F08804432C82AC894EF6F3100440B088E1
:100AB00031890843718908430443AC81AC8A4FF6FD
:100AC000FF400440B0890443AC8201A8FFF77EFEDA
:100AD0001F48874202D1DDF810A001E0DDF80CA02C
:100AE000A88900F4004040B10AEBCA0000EB0A10EC
:100AF00031684900B0FBF1F807E00AEBCA0000EBEF
:100B00000A1031688900B0FBF1F86420B8FBF0F0FE
:100B100004012009642101FB1089A88900F4004028
:100B200040B1322000EBC900B0FBF1F000F007004B
:100B3000044308E0322000EB09106421B0FBF1F01F
:100B400000F00F0004432C8106B0BDE8F0870000E0
:100B50000038014000BFFEE70FB4054B10B503A9F4
:100B6000044A029800F018F810BC5DF814FB00006D
:100B7000A10E00081C00002002E008C8121F08C1D6
:100B8000002AFAD170477047002001E001C1121F0E
:100B9000002AFBD1704700002DE9FF4F8BB09A4629
:100BA0000F460446002606E025280BD052460D9934
:100BB0009047641C761C20780028F5D10FB0304691
:100BC000BDE8F08F0025A94601227D4900E00543DC
:100BD00014F8013F203B02FA03F00842F7D12078D5
:100BE0002E2817D114F8010F45F004052A280ED03D
:100BF0006FF02F022078A0F1300109290AD809EB03
:100C0000890102EB410100EB0109641CF2E757F88E
:100C1000049B641C20786C280DD004DC4C2812D076
:100C20006A2811D104E074280DD07A280CD10AE08A
:100C300045F4001507E0617845F48015814202D142
:100C4000641C05F58015641C207869283ED006DCFC
:100C50000028B3D063280BD0642804D136E0732871
:100C600010D075285CD052460D999047761CA5E0AF
:100C700017F8040B8DF8000000208DF80100E846FD
:100C8000012003E057F8048B4FF0FF3069074FF065
:100C9000000501D40AE06D1C4D450DDA8542FADBF2
:100CA00018F805100029F6D106E06D1C8542FCDB22
:100CB00018F805100029F8D12E4404E018F8010BAB
:100CC00052460D9990476D1EF8D277E000200A90A9
:100CD000C5F302504FF00A0B02280CD001CFC11708
:100CE000021E71F100020CDA0023D0EB030063EB6B
:100CF00001012D2208E0FF1D27F00707F7E8020198
:100D0000EEE72A0504D52B228DF82420012203E0EA
:100D1000EA070FD02022F7E70DF12008089218E02B
:100D200000200A90C5F302504FF00A0B022803D0AE
:100D300001CF00210022EFE7FF1D27F00707F7E8AA
:100D40000201F7E75A460A9BFFF710FA303208F81B
:100D5000012D50EA0102F5D1ADEB080000F1200BA6
:100D6000680701D44FF00109D94502DDA9EB0B005A
:100D700000E000208146002506E009A85246405DBB
:100D80000D9990476D1C761C08988542F5DB04E0B0
:100D9000302052460D999047761CB9F10001A9F117
:100DA0000109F5DC05E018F8010B52460D99904752
:100DB000761CBBF10001ABF1010BF4DC641CFAE61C
:100DC0000928010010B56FF00400FFF7DFFD0A48A5
:100DD00000680A49B0FBF1F009490870084600783C
:100DE00000EB4001C1EBC0104FF6FF7101EAC000FB
:100DF0000449088010BD00000000002000127A00A5
:100E000014000020160000200146114A12884A43AF
:100E10004FF0E0235A6100229A611A46126942F0AB
:100E200001021A6100BF4FF0E022106900F00102D8
:100E30001AB100F48032002AF5D04FF0E022126996
:100E400022F001024FF0E0231A6100229A617047FC
:100E5000160000200146114A12784A434FF0E02361
:100E60005A6100229A611A46126942F001021A611F
:100E700000BF4FF0E022106900F001021AB100F447
:100E80008032002AF5D04FF0E022126922F00102F0
:100E90004FF0E0231A6100229A617047140000208D
:100EA00000BF054A128802F04002002AF9D0C2B2FF
:100EB000014B1B1D1A807047003801400EB5FFF72B
:100EC0007BFD4FF4A060FFF765FCFFF77BFFFFF7AA
:100ED00009FCFFF7D5FAFFF7ACF94FF4E13000F069
:100EE00015F80AE06A4601A902A8FFF7B3F903A0C2
:100EF000DDE900320299FFF72FFEF3E7256C642C41
:100F000020256C642C20256C640A000010B586B086
:100F1000044601218803FFF749FC01210420FFF763
:100F200045FC18208DF817004FF40070ADF8140040
:100F300003208DF8160005A91E48FFF7EAF948209E
:100F40008DF817004FF48060ADF8140003208DF881
:100F5000160005A91748FFF7DCF901940020ADF849
:100F600010000C20ADF80E000020ADF80C00ADF81C
:100F70000A00ADF8080001A90F48FFF77FFD012224
:100F800040F225510C48FFF753FD01210A48FFF7B5
:100F900043FD25208DF8000000208DF801008DF81C
:100FA000020001208DF803006846FFF7BBFB06B086
:100FB00010BD00000008014000380140DC0F0008AF
:100FC0000000002034000000780B0008101000081A
:100FD0003400002004040000880B000800A24A042A
:100FE00000000000000000000102030406070809D9
:100FF00000000000000000000000000000000000F1
:10100000010203040102030406070809020406089A
:0400000508000149A5
:00000001FF
